:020000040800F2
:10000000000002204D220008790900087B09000841
:100010007D0900087F090008810900080000000030
:10002000000000000000000000000000830900083C
:1000300085090008000000008709000889090008F8
:100040009D2200089D2200089D2200089D22000894
:100050009D2200089D2200089D2200089D22000884
:100060009D2200089D2200089D2200089D22000874
:100070009D2200089D2200089D2200089D22000864
:100080009D2200089D2200089D2200089109000879
:10009000A10900089D2200089D2200089D22000859
:1000A0009D2200089D2200089D2200089D22000834
:1000B0009D2200089D2200089D2200089D22000824
:1000C0009D2200089D2200089D2200089D22000814
:1000D0009D220008B10900089D2200089D22000809
:1000E0009D2200089D2200089D2200089D220008F4
:1000F0009D2200089D2200089D2200089D220008E4
:100100009D2200089D2200089D2200089D220008D3
:100110009D2200089D2200089D2200089D220008C3
:100120009D2200089D2200089D2200089D220008B3
:100130009D2200089D2200089D2200089D220008A3
:100140009D2200089D2200089D2200089D22000893
:100150009D2200089D2200089D2200089D22000883
:100160009D2200089D2200089D2200089D22000873
:100170009D2200089D2200089D220008000000002A
:080180009D2200089D220008E9
:1001880053B94AB9002908BF00281CBF4FF0FF31F6
:100198004FF0FF3000F00CB8ADF1080C6DE904CE5B
:1001A80002F0A6F8DDF804E0DDE9022304B07047A8
:1001B800704700BF10B5054C237833B9044B13B111
:1001C8000448AFF300800123237010BD0C00002009
:1001D800000000009825000808B5034B1BB103492F
:1001E8000348AFF3008008BD0000000010000020A5
:1001F8009825000872B6FEE700B595B030220021B8
:1002080008A802F048F80023039304930593069383
:10021800079301931F4A116C41F080511164126CCD
:1002280002F080520192019A02931B4A116841F42C
:1002380080411160126802F480420292029A0222FE
:10024800089201210B9110210C910E920F93082313
:100258001093A823119312920423139308A800F073
:100268009FFF98B90F230393022304930023059358
:100278004FF4A05306934FF480530793052103A826
:1002880001F0DEF920B915B05DF804FBFFF7B2FF05
:10029800FFF7B0FF003802400070004070B586B02C
:1002A8003F4B059301F0A2FCFFF7A6FF00F086F88C
:1002B80000F0D8F800F048F93A4C204600F0DAFC93
:1002C800204600F071FA0221204600F024FE364B49
:1002D80042F228321A6000251DE06423334C03FBE8
:1002E8000544204600F052FAA66D002302934FF40D
:1002F800FA5201920093DFED2E1A9FED2E1AF7EEB7
:10030800080AB2EE040A41F288334FF48042012110
:100318002046B0470135032DDFDD3EE02348642346
:1003280003FB0400204BD3ED007AF8EEE77AC0ED2A
:10033800017A016E04EB440213011F4AD35E00EEFA
:10034800103AB8EEC00A88470134032CE6DD174B93
:10035800D3ED0C6AD3ED257AF1EE677A93ED3E6A18
:1003680093ED577ABDEEC66AFDEEE77AFDEEE66AD2
:10037800BDEEC77A17EE103A1BB2009316EE103A8C
:100388001BB217EE902A12B216EE901A09B205485F
:1003980000F0BEFA0A2001F055FC0024D5E700BFA2
:1003A80003FCFC03BC010020280000202C000020D6
:1003B80000000000CDCC4C3D2C02002030B58BB0A5
:1003C8000024059406940794089409940094234BF8
:1003D8001A6B42F001021A631A6B02F001020092D2
:1003E800009A01941A6B42F002021A631A6B02F027
:1003F80002020192019A02941A6B42F008021A63EF
:100408001A6B02F008020292029A03941A6B42F0E5
:1004180004021A631A6B02F004020392039A04940A
:100428001A6B42F080021A631B6B03F0800304937B
:10043800049B0B4D01224FF48061284601F0CCFA51
:100448004FF480630593012306930794089405A944
:10045800284601F0CBF90BB030BD00BF0038024090
:10046800001C024008B50E480E4B0360032343608E
:1004780000238360C3604FF4002202614FF44012EE
:1004880042610376012242768376C3760377437707
:1004980000F0AEFA00B908BDFFF7ACFEFBE700BFFD
:1004A800BC0100200064004010B588B0002303930D
:1004B800049305930693079302681C4B9A4201D054
:1004C80008B010BD0024019403F5EA331A6C42F019
:1004D80000721A641A6C02F000720192019A029476
:1004E8001A6B42F008021A631B6B03F008030293AD
:1004F800029B032303930222049206930923079382
:1005080003A90B4801F072F922462146132001F095
:1005180015FB132001F022FB22462146142001F08E
:100528000DFB142001F01AFBCAE700BF006400406D
:10053800000C0240034B1A68536943F002035361ED
:10054800704700BFBC01002008B50A480A4B036089
:100558004FF4E133436000238360C36003610C22DE
:1005680042618361C36101F067FC00B908BDFFF710
:1005780041FEFBE7E401002000100140F0B589B01E
:10058800002303930493059306930793026803F1EA
:10059800804303F588339A4201D009B0F0BD0024A6
:1005A800009403F594335A6C42F010025A645A6C62
:1005B80002F010020092009A01941A6B42F00202B3
:1005C8001A631A6B02F002020192019A02941A6BE2
:1005D80042F001021A631B6B03F001030293029BB2
:1005E8008023039302270497032606960725079579
:1005F80003A90B4801F0FAF84FF40073039304972A
:1006080005940696079503A9064801F0EFF82246D7
:100618002146252001F092FA252001F09FFABCE737
:10062800000402400000024007EE902A07EE103A4C
:100638000170BDF8003006EE903AF8EE666AC0ED3B
:10064800116A80ED100AB8EE477A80ED0F7AF8EE5D
:10065800677AC0ED0E7ABDF9043007EE903AF8EEED
:10066800E77AC0ED127ABDF9083007EE903AF8EE55
:10067800E77AC0ED017AC0ED030A80ED041AC0EDF7
:10068800051A00230363704780ED030AC0ED040ACE
:1006980080ED051A704710B52DED028B0446B0EEBB
:1006A800408AC36C036501F0C7FAE064236DC01A81
:1006B80084F8540084ED068AD4ED076AC4ED086A0C
:1006C800236B6363D4ED017A37EEC80A84ED070A19
:1006D800B5EEC00AF1EE10FA55DDF0EE407A94ED71
:1006E800107AB4EEE77AF1EE10FA47D594ED037A72
:1006F80020EE077A84ED097A94ED0A6AD4ED047A3B
:1007080060EE277A36EE276A84ED0A6AD4ED057A18
:1007180030EE660A67EE807AC4ED0B7AD4ED0F6A84
:10072800B4EEE66AF1EE10FA01DDC4ED0A6A94ED62
:100738000A6AF1EE666AB4EEE66AF1EE10FA01D5DD
:10074800C4ED0A6AD4ED0A6A37EE267A77EE877A1C
:10075800C4ED0C7A94ED0E7AF4EEC77AF1EE10FA45
:1007680001DD84ED0C7AD4ED0C7AB1EE477AF4EE23
:10077800C77AF1EE10FA01D584ED0C7A94ED0C0AE3
:10078800BDEC028B10BDF1EE407AA8E7034B836500
:10079800034BC365034B0366704700BF310600086F
:1007A800910600089F06000800B58BB00023069349
:1007B80001220792009301930293039304930E235B
:1007C80005930892694600F0B9F90BB05DF804FB8F
:1007D80070B58AB00546002440F2012303930494BF
:1007E800059406940823079301F026FA434B1B68E7
:1007F800C01AB0F5FA7F0ED801AB03AA002128462B
:1008080000F0E4FA039BA3F20123032B14D8DFE8DA
:1008180003F0120C0E104FF48061394801F0E2F831
:1008280001F00AFA354B1860E6E7012404E00224D7
:1008380002E0032400E000242046324D04EB44018A
:100848004FEA011E05EB0111B1F80CC0A1F80EC06A
:100858009DF804209DF8053043EA02238B819DF81A
:1008680006609DF8072042EA062225F80E209DF82A
:1008780008509DF8092042EA052207EE902AF8EE72
:10088800E77AB1EE047A67EE877A9FED1F7A67EE12
:10089800877AC1ED017A9DF80A208A72A3EB0C0CC5
:1008A800BCF5805F1EDD04EB4402164901EB021221
:1008B800516901395161134A00EB400102EB011102
:1008C8004C6903EB4433098A5B1A00EB400002EBE6
:1008D800001293610D4B1A68536943F00203536188
:1008E8000AB070BD1CF5805FE5DA04EB4401054AE7
:1008F80002EB0112516901315161DCE72802002045
:10090800001C02402C02002000008038BC0100209E
:1009180030B58BB0BDF938C0002401944FF4007590
:100928000495059406940794082508958DF82440A5
:1009380041FA05F48DF808408DF8091042FA05F1DE
:100948008DF80A108DF80B2043FA05F28DF80C206B
:100958008DF80D309DF939308DF80E308DF80FC0B7
:1009680001AB0DEB050204A900F0B2F90BB030BDE4
:10097800FEE7FEE7FEE7FEE7FEE7704770477047D1
:1009880008B501F04DF908BD08B5024800F0E0FAD5
:1009980008BD00BFBC01002008B5024800F0D8FA25
:1009A80008BD00BFBC01002008B5024801F0FEFAEE
:1009B80008BD00BFE401002082B0002100910B4B6C
:1009C8005A6C42F480425A645A6C02F48042009293
:1009D800009A01911A6C42F080521A641B6C03F061
:1009E80080530193019B02B0704700BF003802405A
:1009F800002800F0A18038B5044690F82030D3B123
:100A08002268136843F00103136001F015F90546E5
:100A180023685A6812F0010F10D101F00DF9401B3C
:100A28000A28F5D9636A43F400336362052384F81E
:100A38002030012038BDFFF737FDE1E71A6822F0C2
:100A480002021A6001F0F8F8054623685A6812F0A5
:100A5800020F0DD001F0F0F8401B0A28F5D9636A9F
:100A680043F400336362052384F820300120E1E772
:100A7800227E012A3DD01A6822F080021A60637E25
:100A8800012B3BD02268136823F040031360A37E38
:100A9800012B39D02268136823F020031360E37E0A
:100AA800012B37D02268136843F010031360237FAB
:100AB800012B35D02268136823F008031360637F85
:100AC800012B33D02268136823F004031360A36852
:100AD800E268134322691343626913436268013A67
:100AE80021681343CB6100206062012384F8203021
:100AF800A0E71A6842F080021A60C0E7226813680B
:100B080043F040031360C2E72268136843F02003F0
:100B18001360C4E72268136823F010031360C6E764
:100B28002268136843F008031360C8E72268136853
:100B380043F004031360CAE70120704790F820309F
:100B4800013BDBB2012B05D9436A43F4802343629E
:100B58000120704730B5464BD3F8002242F001021D
:100B6800C3F80022D3F8002222F47C52C3F80022F2
:100B7800D3F80022486A42EA0022C3F800224A69F0
:100B880002F01F02012000FA02F2D3F81C026FEAF9
:100B9800020C20EA0200C3F81C02CB69C3B9344B2B
:100BA800D3F80C020CEA0000C3F80C028C884869E0
:100BB800CD6844EA0544483043F830408C680888DA
:100BC80040EA04404C6904F1480E03EBCE03586038
:100BD800CB69012B1ED08B69002B33D12448D0F868
:100BE80004320CEA0303C0F804320B698BBB2048BB
:100BF800D0F814320CEA0303C0F814320B6A012B44
:100C08002ED01B4AD2F8003223F00103C2F800327A
:100C1800002030BD164BD3F80C021043C3F80C0269
:100C28008C8848690D6844EA0544483043F83040E8
:100C380088894C698D6840EA0540483403EBC40351
:100C48005860C8E70A48D0F804321343C0F80432A1
:100C5800CBE70748D0F814321343C0F81432CDE775
:100C68000349D1F81C321343C1F81C32C9E700BF4D
:100C78000064004070B5044690F82050EDB2012D94
:100C880006D0436A43F4002343620125284670BD19
:100C9800022380F820300268136823F001031360F0
:100CA80000F0CAFF064623685B6813F0010F0CD0FA
:100CB80000F0C2FF831B0A2BF5D9636A43F40033A3
:100CC8006362052384F82030E0E700256562DDE7EC
:100CD80030B590F820C00468A4680CF1FF3C5FFAB6
:100CE8008CFCBCF1010F6BD814F0E05F62D0C4F348
:100CF800016CBCF1020F05D9436A43F40003436257
:100D0800012062E0012404FA0CF41C608B68002BBB
:100D18003DD10D68CB68046843EA45550CF11803CA
:100D28001B01E55003680C690CF1180E03EB0E1358
:100D38005C600B7D012B35D0D17993791B0443EA94
:100D48000163517943EA012314790168234301EBD4
:100D58000C11C1F88C31D17893781B0443EA0163F4
:100D6800517843EA0123117802680B4302EB0C1215
:100D7800C2F8883102680CF1180C4FEA0C1C52F8C2
:100D88000C3043F0010342F80C3000201DE04C68A1
:100D980043EAC403CC6823430CF118042401056812
:100DA8002B51BFE7036803EB0E13596841F48071B8
:100DB8005960C1E7436A43F400134362012004E029
:100DC800436A43F480234362012030BD90F820C079
:100DD8000CF1FF3C5FFA8CFCBCF1010F00F295802E
:100DE80030B451B90468E46814F0030F10D1436AB1
:100DF80043F400134362012077E00468246914F087
:100E0800030F05D1436A43F40013436201206CE0E9
:100E180001F11B04240105682C5904F004049460B2
:100E2800002C64D101F11B04240105682C59640DC0
:100E38001460046801F11B0C4FEA0C1C54F80C40B8
:100E480004F00204D46004686444646804F00F0485
:100E58001461046864446468C4F3072494610468F2
:100E680064446468240C5461026802EB0112D2F8ED
:100E7800B8211A70026802EB0112D2F8B821C2F345
:100E880007225A70026802EB0112D2F8B821C2F3A5
:100E980007429A70026802EB0112D2F8B821120ECA
:100EA800DA70026802EB0112D2F8BC211A710268EA
:100EB80002EB0112D2F8BC21C2F307225A71026870
:100EC80002EB0112D2F8BC21C2F307429A71026800
:100ED80002EB0112D2F8BC21120EDA7179B902685C
:100EE800D36843F02003D360002030BC704701F181
:100EF8001B04240105682C59E408546099E702682A
:100F0800136943F020031361EEE7436A43F4802337
:100F180043620120704790F82030013BDBB2012B7F
:100F280005D9436A43F4802343620120704702686D
:100F380053690B43536100207047704770477047EF
:100F480070477047704770477047704770477047E1
:100F58002DE9F84F054603685C69D3F804809F685B
:100F6800D3F80CA0D3F81090D3F818B014F00106F9
:100F78003BD017F0010616D001229A6017F0020F35
:100F880008D117F0040F0CD117F0080606D04FF45B
:100F9800805608E0FFF7D1FF002604E0FFF7D0FFF6
:100FA80001E04FF4006617F4807F0DD02B684FF4F2
:100FB80080729A6017F4007F40F0968017F4806F73
:100FC80000F0968046F4005617F4803F0DD02B6849
:100FD8004FF480329A6017F4003F40F0938017F482
:100FE800802F00F0938046F4004614F0080F07D0D5
:100FF8001AF0100F04D046F400762B681022DA603D
:1010080014F0040F03D01AF0080F40F0898014F090
:10101800020F05D02B68DB6813F0030F40F08780C0
:1010280014F0400F07D019F0100F04D046F4806672
:101038002B6810221A6114F0200F02D019F0080F43
:1010480079D114F0100F04D02B681B6913F0030F2B
:1010580078D114F4003F02D018F0100F76D114F4B0
:10106800803F02D018F0080F77D114F4004F37D022
:1010780018F0040F31D014F4807F04D01BF0010F56
:1010880001D046F0010614F4007F04D01BF0020FD3
:1010980001D046F0020614F4806F04D01BF0040F50
:1010A80001D046F0040614F4006F16D01BF0700B44
:1010B80013D0BBF1400F66D056D8BBF1200F5CD0DF
:1010C800BBF1300F5CD0BBF1100F01D146F0080620
:1010D8002A68936923F0700393612B6804225A608D
:1010E800002E56D1BDE8F88F2846FFF727FF6BE79B
:1010F80017F4006F02D046F4804665E72846FFF7EC
:1011080020FF61E72846FFF71AFF6EE717F4002F64
:1011180002D046F4803668E72846FFF713FF64E7F5
:101128002B680822DA602846FFF70DFF6FE728468C
:10113800FFF74EFB74E72B6808221A612846FFF771
:1011480004FF7EE72846FFF7FFFE82E72B681022A0
:101158005A602846FFF7FAFE81E72B6808225A6092
:101168002846FFF7F4FE80E7BBF1500F0ED0BBF125
:10117800600FADD146F48076AAE746F01006A7E7DF
:1011880046F02006A4E746F04006A1E746F08006B0
:101198009EE76B6A33436B622846FFF7CBF9A1E7FA
:1011A800002800F0E08170B582B00446036813F0AF
:1011B800010F3BD09F4B9B6803F00C03042B2CD0F2
:1011C8009C4B9B6803F00C03082B21D06368B3F594
:1011D800803F4FD0B3F5A02F52D0964B1A6822F417
:1011E80080321A601A6822F480221A606368002B21
:1011F80050D000F021FD05468E4B1B6813F4003FCC
:1012080014D100F019FD401B6428F5D90320B1E181
:10121800884B5B6813F4800FD8D0864B1B6813F497
:10122800003F03D06368002B00F09F81236813F010
:10123800020F54D07F4B9B6813F00C0F3ED07D4BB0
:101248009B6803F00C03082B33D0E368002B68D0AD
:10125800794B01221A6000F0EFFC0546754B1B68BC
:1012680013F0020F54D100F0E7FC401B0228F5D917
:1012780003207FE16F4A136843F480331360B5E7B6
:101288006C4B1A6842F480221A601A6842F4803261
:101298001A60ABE700F0D0FC0546664B1B6813F4F8
:1012A800003FC3D000F0C8FC401B6428F5D90320D8
:1012B80060E1604B5B6813F4800FC6D15D4B1B681F
:1012C80013F0020F03D0E368012B40F05081594A14
:1012D800136823F0F803216943EAC1031360236804
:1012E80013F0080F42D063696BB3534B0122C3F864
:1012F800802E00F0A1FC05464E4B5B6F13F0020FE9
:1013080034D100F099FC401B0228F5D9032031E1C3
:10131800484A136823F0F803216943EAC1031360BC
:10132800DDE7454B00221A6000F086FC0546414B7C
:101338001B6813F0020FD2D000F07EFC401B02287D
:10134800F5D9032016E13C4B0022C3F8802E00F0AB
:1013580073FC0546374B5B6F13F0020F06D000F0A5
:101368006BFC401B0228F5D9032003E1236813F026
:10137800040F77D02F4B1B6C13F0805F33D1002301
:1013880001932C4B1A6C42F080521A641B6C03F0C8
:1013980080530193019B0125284B1B6813F4807F20
:1013A80023D0A368012B34D0052B38D0214B1A6FDA
:1013B80022F001021A671A6F22F004021A67A36862
:1013C800002B3DD000F038FC06461A4B1B6F13F07B
:1013D800020F46D100F030FC801B41F2883398425E
:1013E800F3D90320C6E00025D6E7144A136843F46E
:1013F8008073136000F020FC0646104B1B6813F442
:10140800807FCED100F018FC801B0228F5D903207C
:10141800B0E0084A136F43F001031367CFE7054BA9
:101428001A6F42F004021A671A6F42F001021A6733
:10143800C5E700BF00380240000047420070004086
:1014480000F0FAFB0646524B1B6F13F0020F08D050
:1014580000F0F2FB801B41F288339842F3D9032055
:1014680088E0EDB9A369002B00F08380484A9268B0
:1014780002F00C02082A51D0022B17D0454B00224B
:101488001A6600F0D9FB0446414B1B6813F0007F35
:1014980042D000F0D1FB001B0228F5D9032069E0F7
:1014A8003B4A136C23F080531364DBE7394B00226B
:1014B8001A6600F0C1FB0546354B1B6813F0007F28
:1014C80006D000F0B9FB401B0228F5D9032051E0F3
:1014D800E369226A1343626A43EA8213A26A5208E2
:1014E800013A43EA0243E26A43EA0263284A536044
:1014F800284B01221A6600F09FFB0446244B1B6808
:1015080013F0007F06D100F097FB001B0228F5D9E5
:1015180003202FE000202DE000202BE0012B2BD012
:101528001B4B5B6803F48001E269914226D103F00A
:101538003F02216A8A4223D1616A47F6C0721A4083
:10154800B2EB811F1ED103F44031A26A5208013A5E
:10155800B1EB024F18D103F07063E26AB3EB026F8C
:1015680014D1002006E001207047012002E001208C
:1015780000E0002002B070BD0120FBE70120F9E780
:101588000120F7E70120F5E70120F3E70120F1E763
:10159800003802400000474208B5264B9B6803F01C
:1015A8000C03042B41D0082B41D1224B5A6802F07E
:1015B8003F025B6813F4800F12D01E4B5968C1F3C9
:1015C80088111D480023A1FB0001FEF7D9FD194B26
:1015D8005B68C3F3014301335B00B0FBF3F008BD64
:1015E800144B5868C0F388104FEA401CBCEB000C41
:1015F8006EEB0E0E4FEA8E1343EA9C634FEA8C1192
:10160800B1EB0C0163EB0E03DB0043EA5173C90035
:1016180011EB000C43F10003990200234FEA8C20E0
:1016280041EA9C51FEF7ACFDD1E70348D7E70348F0
:10163800D5E700BF00380240001BB7000024F400C3
:10164800002800F09B8070B50D4604464F4B1B6880
:1016580003F007038B4208D2CBB24C4A13701368CD
:1016680003F007038B4240F08B80236813F0020FCE
:1016780017D013F0040F04D0454A936843F4E0539D
:101688009360236813F0080F04D0414A936843F429
:10169800604393603E4A936823F0F003A1680B43CC
:1016A8009360236813F0010F32D06368012B21D0B7
:1016B8009A1E012A25D9364A126812F0020F61D003
:1016C80033498A6822F0030213438B6000F0B4FAAE
:1016D80006462F4B9B6803F00C036268B3EB820F3E
:1016E80016D000F0A9FA801B41F288339842F0D94D
:1016F800032042E0264A126812F4003FE0D101209C
:101708003BE0234A126812F0007FD9D1012034E06F
:101718001E4B1B6803F00703AB4207D9EAB21B4B09
:101728001A701B6803F00703AB422DD1236813F02E
:10173800040F06D0164A936823F4E053E1680B437C
:101748009360236813F0080F07D0114A936823F4B5
:101758006043216943EAC1039360FFF71DFF0C4B07
:101768009B68C3F303130B4AD35CD8400A4B186039
:101778000A4B186800F014FA002070BD0120704769
:101788000120FAE70120F8E70120F6E7003C0240D3
:1017980000380240B8250008080000200400002096
:1017A800014B1868704700BF0800002008B5FFF714
:1017B800F7FF044B9B68C3F38223034AD35CD840EA
:1017C80008BD00BF00380240B025000808B5FFF783
:1017D800E7FF044B9B68C3F34233034AD35CD8400A
:1017E80008BD00BF00380240B025000800230F2BB9
:1017F80000F2E98070B582B065E085684FEA430E73
:10180800032404FA0EF425EA0405CC6804FA0EF45D
:101818002C438460446824EA02044A68C2F3001234
:101828009A40224342605CE0DC08083450F82420E7
:1018380003F00705AD004FF00F0E0EFA05FE22EA81
:101848000E0E0A69AA4042EA0E0240F824205CE023
:10185800072200E0002202FA0EF22A4302345A4D0F
:1018680045F82420594A94686FEA0C0224EA0C05CA
:101878004E6816F4801F01D04CEA0405534CA5604D
:10188800E46802EA04054E6816F4001F01D04CEA29
:1018980004054E4CE560646802EA04054E6816F4D7
:1018A800003F01D04CEA0405484C6560246822409A
:1018B8004D6815F4803F01D04CEA0402434C226085
:1018C80001330F2B7DD801229A400C6804EA020CE0
:1018D80032EA0404F4D14C6804F00304013C012CFE
:1018E8008BD94A6802F00302032A09D0C4685D0054
:1018F8000322AA4024EA02048A68AA402243C2605A
:101908004A6802F00302022A8ED004684FEA430EA6
:10191800032202FA0EF224EA02044A6802F00302E1
:1019280002FA0EF2224302604A6812F4403FC7D01E
:1019380000220192264A546C44F480445464526C48
:1019480002F480420192019A9C08A51C1E4A52F892
:10195800255003F0030E4FEA8E0E0F2202FA0EF204
:1019680025EA02051B4A90423FF474AF02F58062F3
:1019780090421AD002F58062904218D002F5806237
:10198800904216D002F58062904214D002F580622F
:10199800904212D002F58062904210D002F5806227
:1019A80090423FF455AF082255E7012253E702223F
:1019B80051E703224FE704224DE705224BE70622B1
:1019C80049E702B070BD704700380140003C014053
:1019D80000380240000002400AB1816170470904E2
:1019E80081617047436901EA030221EA030141EA80
:1019F80002418161704770B50446866D00F01CF99C
:101A080094F83530DBB2022B06D0802363650023BF
:101A180084F83430012070BD05462268136823F02D
:101A2800160313602268536923F080035361236C03
:101A3800E3B12268136823F008031360226813686F
:101A480023F00103136023681B6813F0010F11D002
:101A580000F0F2F8431B052BF5D92023636503201A
:101A680084F83500002384F83430D4E7A36C002BC5
:101A7800DFD1E3E7E26D3F239340B360012384F8AD
:101A88003530002084F83400C5E790F83530DBB2F3
:101A9800022B03D08023436501207047052380F87B
:101AA80035300268136823F0010313600020704783
:101AB800002808DB0901C9B200F1604000F5614067
:101AC80080F80013704700F00F000901C9B2014BFC
:101AD8001954704714ED00E000B500F00700C0F19C
:101AE800070CBCF1040F28BF4FF0040C031D062B94
:101AF8000FD9C31E4FF0FF3E0EFA0CF021EA000189
:101B080099400EFA03FE22EA0E0241EA02005DF84D
:101B180004FB0023EEE70000074AD36823F4E063E0
:101B28001B041B0C000200F4E060034343F0BF6396
:101B380043F40033D360704700ED00E010B504466D
:101B4800054BD868C0F30220FFF7C6FF01462046C0
:101B5800FFF7AEFF10BD00BF00ED00E0002807DB77
:101B680000F01F02400901239340024A42F8203046
:101B7800704700BF00E100E00138B0F1807F0BD270
:101B88004FF0E0235861054AF02182F82310002025
:101B9800986107221A6170470120704700ED00E044
:101BA80010B504460E4B1A784FF47A73B3FBF2F370
:101BB8000C4A1068B0FBF3F0FFF7DEFF68B90F2C92
:101BC80001D901200AE0002221464FF0FF30FFF73B
:101BD800B5FF054B1C60002000E0012010BD00BFD0
:101BE80000000020080000200400002008B50B4B6E
:101BF8001A6842F400721A601A6842F480621A6025
:101C08001A6842F480721A600320FFF785FF0020EB
:101C1800FFF7C6FFFEF7D0FE002008BD003C0240DB
:101C2800034A1168034B1B780B441360704700BFCD
:101C3800EC02002000000020014B1868704700BF2C
:101C4800EC02002038B50446FFF7F6FF0546B4F16C
:101C5800FF3F02D0044B1B781C44FFF7EDFF401BED
:101C6800A042FAD338BD00BF00000020026802F18C
:101C78000C0353E8003F23F490730C3242E8003120
:101C88000029F3D1026802F1140353E8003F23F05E
:101C98000103143242E800310029F3D1036B012B10
:101CA80005D0202380F83E30002303637047026884
:101CB80002F10C0353E8003F23F010030C3242E812
:101CC80000310029F3D1ECE790F83D30DBB2212B4D
:101CD80001D0022070478368B3F5805F17D0036A8C
:101CE8005A1C02621A7803685A60C38C9BB2013B83
:101CF8009BB2C3844BB90268D36823F08003D360D6
:101D08000268D36843F04003D3600020704703693A
:101D1800002BE4D1036A1B880268C3F308035360ED
:101D2800036A02330362E0E710B5044602681369E8
:101D380023F44053C1680B431361836802691A4353
:101D480043691A43C3691A430168CB6823F41643ED
:101D580023F00C031343CB600268536923F44073E8
:101D680081690B4353610368314A934206D002F5F7
:101D78008062934202D0FFF719FD01E0FFF726FDCC
:101D8800E369B3F5004F29D00021031849411B1816
:101D980041F10001C90041EA5371DB00181863687A
:101DA8004FEA83024FEA937341F10001FEF7E8F925
:101DB800204AA2FB00314909642303FB11031B01DC
:101DC8003233A2FB03235B0903F0F00202EB01129A
:101DD80003F00F03216813448B6010BD0023021821
:101DE80043EB0301121841F10001C90041EA5271A5
:101DF800D200101841F10001626892185B41FEF7A9
:101E0800BFF90C4AA2FB00314909642303FB110303
:101E1800DB003233A2FB03235B095A0002F4F87299
:101E280002EB011203F00703216813448B60D4E727
:101E3800001001401F85EB5158B310B5044690F8C7
:101E48003D300BB3242384F83D302268D36823F453
:101E58000053D3602046FFF767FF2268136923F415
:101E6800904313612268536923F02A03536122685F
:101E7800D36843F40053D36000202064202384F8FF
:101E88003D3084F83E3010BD80F83C30FEF776FBDC
:101E9800D8E701207047704708B50168CA6822F082
:101EA8004002CA60202280F83D20FFF7F4FF00209E
:101EB80008BD7047704708B5806B0023C385C3848D
:101EC800FFF7F8FF08BD704790F83E30DBB2222BD1
:101ED80067D18368B3F5805F4DD0826AB3F5805FC0
:101EE80004D0002B54D10369002B51D103685B68DF
:101EF8001370836A01338362C38D9BB2013B9BB22B
:101F0800C385002B4FD100B583B00268D36823F096
:101F18002003D3600268D36823F48073D360026817
:101F2800536923F001035361202380F83E30036B8B
:101F3800012B33D100230363026802F10C0353E839
:101F4800003F23F010030C3242E800310029F3D19E
:101F580003681A6812F0100F06D0002201921A685E
:101F680001925B680193019B818DFFF7ACFF002014
:101F780003B05DF804FB0269002AAED1826A0368E7
:101F88005B68C3F308031380836A02338362B3E791
:101F980003685B6803F07F031370AAE7FFF789FF04
:101FA800E5E70220704700207047000010B582B0B6
:101FB800044602681368D068516913F00F0F09D1FD
:101FC80013F0200F0CD010F0200F09D02046FFF797
:101FD8007BFF16E011F0010115D110F4907F12D1AA
:101FE800216B012979D013F0800F03D010F0800FF6
:101FF80040F0108113F0400F03D010F0400F40F074
:102008000D8102B010BD13F0010F06D010F4807FCF
:1020180003D0226C42F00102226413F0040F04D0B2
:1020280019B1226C42F00202226413F0020F04D0AC
:1020380019B1226C42F00402226413F0080F07D091
:1020480010F0200F00D119B1226C42F0080222646E
:10205800226C002AD5D013F0200F02D010F0200FE8
:1020680029D123685B6903F04003226C12F0080F42
:1020780000D163B32046FFF7F9FD23685B6913F0CD
:10208800400F20D0226802F1140353E8003F23F0E8
:102098004003143242E800310029F3D1A36B73B135
:1020A800604A1A65A06BFFF7F0FC0028A9D0A06B66
:1020B800036D9847A5E72046FFF706FFD1E72046BE
:1020C800FFF7F8FE9DE72046FFF7F4FE99E7204664
:1020D800FFF7F0FE0023236493E713F0100F82D07C
:1020E80010F0100F3FF47FAF0023019313680193A2
:1020F80053680193019B536913F0400F50D0A26BB2
:1021080013685B689BB2002B3FF47BAFA18D9942AB
:102118007FF677AFE385D369B3F5807F37D0226840
:1021280002F10C0353E8003F23F480730C3242E8B9
:1021380000310029F3D1226802F1140353E8003F6B
:1021480023F00103143242E800310029F3D1226858
:1021580002F1140353E8003F23F04003143242E82D
:1021680000310029F3D1202384F83E300023236373
:10217800226802F10C0353E8003F23F010030C32ED
:1021880042E800310029F3D1A06BFFF734FCA18DA0
:10219800E38D9BB2C91A89B22046FFF794FE30E757
:1021A800A18DE38D9BB2C91A89B2E38D9BB2002B36
:1021B8003FF427AF00293FF424AF226802F10C0353
:1021C80053E8003F23F490730C3242E800300028B3
:1021D800F3D1226802F1140353E8003F23F001030E
:1021E800143242E800300028F3D1202384F83E302E
:1021F80000232363226802F10C0353E8003F23F015
:1022080010030C3242E800300028F3D12046FFF7D3
:102218005AFEF6E62046FFF757FDF2E62046FFF79E
:102228003BFEEEE6BF1E0008054BD3F8882042F4BB
:102238007002C3F888204FF000629A60704700BFB0
:1022480000ED00E0DFF834D00D480E490E4A0023B7
:1022580002E0D458C4500433C4188C42F9D30B4A52
:102268000B4C002301E013600432A242FBD3FFF7BA
:10227800DBFF00F019F8FEF711F8704700000220A4
:10228800000000200C000020D82500080C000020C9
:10229800F0020020FEE702440346934200D1704753
:1022A80003F8011BF9E7000070B50D4D0D4C641BD8
:1022B800A4100026A64209D10B4D0C4C00F068F979
:1022C800641BA4100026A64205D170BD55F8043B36
:1022D80098470136EEE755F8043B98470136F2E790
:1022E800D0250008D0250008D0250008D4250008EE
:1022F8002DE9F04786468C460846089E15467446E2
:102308001946002B40F0C2808542B2FA82F245D9C4
:102318004AB1C2F1200300FA02FC2EFA03F39540F9
:1023280043EA0C0C94404FEA154EA8B2BCFBFEF8E9
:10233800230C0EFB18CC08FB00F943EA0C43994523
:1023480028D9EB1808F1FF3704D2994502D9A8F12A
:1023580002072B44A3EB0903A4B2B3FBFEFC0EFB5C
:102368001C330CFB00F044EA0344A04214D92C1996
:102378000CF1FF3304D2A04202D9ACF102032C4481
:10238800241A43EA07401EB1D44000233460736026
:10239800BDE8F0874746DDE76346F1E792BB431B9C
:1023A80001214FEA154EAFB2B3FBFEFC200C0EFB29
:1023B8001C330CFB07F840EA0343984562D9EB1835
:1023C8000CF1FF3004D2984502D9ACF102002B443D
:1023D800A3EB0803A4B2B3FBFEFC0EFB1C330CFBFF
:1023E80007F744EA0344A7424ED92C190CF1FF33EE
:1023F80004D2A74202D9ACF102032C44E41B43EAFD
:102408000040C0E7C2F1200320FA03F19540904054
:102418002EFA03F303434FEA154EAFB2B1FBFEFCAD
:102428000EFB1C10190C0CFB07F841EA004188450B
:1024380004FA02F422D969180CF1FF3004D2884555
:1024480002D9ACF102002944A1EB08019BB2B1FB0F
:10245800FEFC0EFB1C110CFB07F743EA01439F42ED
:102468000ED9EB180CF1FF3104D29F4202D9ACF11E
:1024780002012B44DB1B41EA004192E76046E3E797
:102488006146F7E76046A3E76346B7E7834206D9A4
:1024980016B9002108467BE7C6E900E0F9E7B3FA78
:1024A80083F78FB9834201D3724508D8BEEB020483
:1024B80060EB030301209C461EB9002168E73846FB
:1024C800FAE7C6E9004CF8E7C7F1200CBB4022FA4E
:1024D8000CF41C432EFA0CF120FA0CF3B84001431B
:1024E8004FEA14490EFA07F5B3FBF9F81FFA84FE10
:1024F80009FB18300B0C08FB0EFA43EA00439A4517
:1025080002FA07F240D9E31808F1FF3004D29A45DD
:1025180002D9A8F102002344A3EB0A0389B2B3FB52
:10252800F9F809FB183308FB0EFE41EA03418E4512
:102538002CD9611808F1FF3304D28E4502D9A8F1CD
:102548000203214443EA0040A0FB0298A1EB0E01DC
:102558004145CE46434602D306D14D4504D2B9EB98
:10256800020E68EB04030138002EA6D0B5EB0E026C
:1025780061EB030101FA0CFC22FA07F34CEA0303AE
:10258800F940C6E9003198E74046C5E74346D9E730
:10259800F8B500BFF8BC08BC9E467047F8B500BF48
:0825A800F8BC08BC9E46704718
:1025B0000000000001020304000000000000000011
:0825C0000102030406070809EB
:0825C80030FDFF7F010000005F
:0425D000E10100081D
:0425D400BD0100083D
:0C25D80001000000100000000024F400CE
:040000050800224D80
:00000001FF
